{
    "contractName": "HelloWorld",
    "abi": [
        {
            "inputs": [],
            "name": "getHelloWorldMessage",
            "outputs": [
                {
                    "internalType": "string",
                    "name": "",
                    "type": "string"
                }
            ],
            "stateMutability": "view",
            "type": "function"
        }
    ],
    "bytecode": "60c0604052600b60809081526a12195b1b1bc815dbdc9b1960aa1b60a05260009061002a90826100dc565b5034801561003757600080fd5b5061019b565b634e487b7160e01b600052604160045260246000fd5b600181811c9082168061006757607f821691505b60208210810361008757634e487b7160e01b600052602260045260246000fd5b50919050565b601f8211156100d757600081815260208120601f850160051c810160208610156100b45750805b601f850160051c820191505b818110156100d3578281556001016100c0565b5050505b505050565b81516001600160401b038111156100f5576100f561003d565b610109816101038454610053565b8461008d565b602080601f83116001811461013e57600084156101265750858301515b600019600386901b1c1916600185901b1785556100d3565b600085815260208120601f198616915b8281101561016d5788860151825594840194600190910190840161014e565b508582101561018b5787850151600019600388901b60f8161c191681555b5050505050600190811b01905550565b61019e806101aa6000396000f3fe608060405234801561001057600080fd5b506004361061002b5760003560e01c8063abfc660714610030575b600080fd5b61003861004e565b60405161004591906100e0565b60405180910390f35b60606000805461005d9061012e565b80601f01602080910402602001604051908101604052809291908181526020018280546100899061012e565b80156100d65780601f106100ab576101008083540402835291602001916100d6565b820191906000526020600020905b8154815290600101906020018083116100b957829003601f168201915b5050505050905090565b600060208083528351808285015260005b8181101561010d578581018301518582016040015282016100f1565b506000604082860101526040601f19601f8301168501019250505092915050565b600181811c9082168061014257607f821691505b60208210810361016257634e487b7160e01b600052602260045260246000fd5b5091905056fea2646970667358221220e9565dcb700c607782e1df4c6d84a6ab3089719d15a5119cde00936344839b3964736f6c63430008100033",
    "sourcePath": "/Users/davy_chen/workspace/blockchain/firstproject/contracts/HelloWorld.sol",
    "compiler": {
        "name": "solc",
        "version": "0.8.16+commit.07a7930e"
    },
    "functionHashes": {
        "getHelloWorldMessage()": "abfc6607"
    },
    "gasEstimates": {
        "creation": {
            "codeDepositCost": "82800",
            "executionCost": "infinite",
            "totalCost": "infinite"
        },
        "external": {
            "getHelloWorldMessage()": "infinite"
        }
    }
}